{
  "_format": "hh-sol-artifact-1",
  "contractName": "MyEpicNFT",
  "sourceName": "contracts/MyEpicNFT.sol",
  "abi": [
    {
      "inputs": [],
      "stateMutability": "nonpayable",
      "type": "constructor"
    },
    {
      "anonymous": false,
      "inputs": [
        {
          "indexed": true,
          "internalType": "address",
          "name": "owner",
          "type": "address"
        },
        {
          "indexed": true,
          "internalType": "address",
          "name": "approved",
          "type": "address"
        },
        {
          "indexed": true,
          "internalType": "uint256",
          "name": "tokenId",
          "type": "uint256"
        }
      ],
      "name": "Approval",
      "type": "event"
    },
    {
      "anonymous": false,
      "inputs": [
        {
          "indexed": true,
          "internalType": "address",
          "name": "owner",
          "type": "address"
        },
        {
          "indexed": true,
          "internalType": "address",
          "name": "operator",
          "type": "address"
        },
        {
          "indexed": false,
          "internalType": "bool",
          "name": "approved",
          "type": "bool"
        }
      ],
      "name": "ApprovalForAll",
      "type": "event"
    },
    {
      "anonymous": false,
      "inputs": [
        {
          "indexed": false,
          "internalType": "address",
          "name": "sender",
          "type": "address"
        },
        {
          "indexed": false,
          "internalType": "uint256",
          "name": "tokenId",
          "type": "uint256"
        }
      ],
      "name": "NewEpicNFTMinted",
      "type": "event"
    },
    {
      "anonymous": false,
      "inputs": [
        {
          "indexed": true,
          "internalType": "address",
          "name": "from",
          "type": "address"
        },
        {
          "indexed": true,
          "internalType": "address",
          "name": "to",
          "type": "address"
        },
        {
          "indexed": true,
          "internalType": "uint256",
          "name": "tokenId",
          "type": "uint256"
        }
      ],
      "name": "Transfer",
      "type": "event"
    },
    {
      "inputs": [
        {
          "internalType": "address",
          "name": "to",
          "type": "address"
        },
        {
          "internalType": "uint256",
          "name": "tokenId",
          "type": "uint256"
        }
      ],
      "name": "approve",
      "outputs": [],
      "stateMutability": "nonpayable",
      "type": "function"
    },
    {
      "inputs": [
        {
          "internalType": "address",
          "name": "owner",
          "type": "address"
        }
      ],
      "name": "balanceOf",
      "outputs": [
        {
          "internalType": "uint256",
          "name": "",
          "type": "uint256"
        }
      ],
      "stateMutability": "view",
      "type": "function"
    },
    {
      "inputs": [
        {
          "internalType": "uint256",
          "name": "tokenId",
          "type": "uint256"
        }
      ],
      "name": "getApproved",
      "outputs": [
        {
          "internalType": "address",
          "name": "",
          "type": "address"
        }
      ],
      "stateMutability": "view",
      "type": "function"
    },
    {
      "inputs": [
        {
          "internalType": "address",
          "name": "owner",
          "type": "address"
        },
        {
          "internalType": "address",
          "name": "operator",
          "type": "address"
        }
      ],
      "name": "isApprovedForAll",
      "outputs": [
        {
          "internalType": "bool",
          "name": "",
          "type": "bool"
        }
      ],
      "stateMutability": "view",
      "type": "function"
    },
    {
      "inputs": [],
      "name": "makeAnEpicNFT",
      "outputs": [],
      "stateMutability": "nonpayable",
      "type": "function"
    },
    {
      "inputs": [],
      "name": "name",
      "outputs": [
        {
          "internalType": "string",
          "name": "",
          "type": "string"
        }
      ],
      "stateMutability": "view",
      "type": "function"
    },
    {
      "inputs": [
        {
          "internalType": "uint256",
          "name": "tokenId",
          "type": "uint256"
        }
      ],
      "name": "ownerOf",
      "outputs": [
        {
          "internalType": "address",
          "name": "",
          "type": "address"
        }
      ],
      "stateMutability": "view",
      "type": "function"
    },
    {
      "inputs": [
        {
          "internalType": "address",
          "name": "from",
          "type": "address"
        },
        {
          "internalType": "address",
          "name": "to",
          "type": "address"
        },
        {
          "internalType": "uint256",
          "name": "tokenId",
          "type": "uint256"
        }
      ],
      "name": "safeTransferFrom",
      "outputs": [],
      "stateMutability": "nonpayable",
      "type": "function"
    },
    {
      "inputs": [
        {
          "internalType": "address",
          "name": "from",
          "type": "address"
        },
        {
          "internalType": "address",
          "name": "to",
          "type": "address"
        },
        {
          "internalType": "uint256",
          "name": "tokenId",
          "type": "uint256"
        },
        {
          "internalType": "bytes",
          "name": "_data",
          "type": "bytes"
        }
      ],
      "name": "safeTransferFrom",
      "outputs": [],
      "stateMutability": "nonpayable",
      "type": "function"
    },
    {
      "inputs": [
        {
          "internalType": "address",
          "name": "operator",
          "type": "address"
        },
        {
          "internalType": "bool",
          "name": "approved",
          "type": "bool"
        }
      ],
      "name": "setApprovalForAll",
      "outputs": [],
      "stateMutability": "nonpayable",
      "type": "function"
    },
    {
      "inputs": [
        {
          "internalType": "bytes4",
          "name": "interfaceId",
          "type": "bytes4"
        }
      ],
      "name": "supportsInterface",
      "outputs": [
        {
          "internalType": "bool",
          "name": "",
          "type": "bool"
        }
      ],
      "stateMutability": "view",
      "type": "function"
    },
    {
      "inputs": [],
      "name": "symbol",
      "outputs": [
        {
          "internalType": "string",
          "name": "",
          "type": "string"
        }
      ],
      "stateMutability": "view",
      "type": "function"
    },
    {
      "inputs": [
        {
          "internalType": "uint256",
          "name": "tokenId",
          "type": "uint256"
        }
      ],
      "name": "tokenURI",
      "outputs": [
        {
          "internalType": "string",
          "name": "",
          "type": "string"
        }
      ],
      "stateMutability": "view",
      "type": "function"
    },
    {
      "inputs": [
        {
          "internalType": "address",
          "name": "from",
          "type": "address"
        },
        {
          "internalType": "address",
          "name": "to",
          "type": "address"
        },
        {
          "internalType": "uint256",
          "name": "tokenId",
          "type": "uint256"
        }
      ],
      "name": "transferFrom",
      "outputs": [],
      "stateMutability": "nonpayable",
      "type": "function"
    }
  ],
  "bytecode": "0x60806040526040518060e001604052806040518060400160405280600381526020017f726564000000000000000000000000000000000000000000000000000000000081525081526020016040518060400160405280600681526020017f6f72616e6765000000000000000000000000000000000000000000000000000081525081526020016040518060400160405280600681526020017f79656c6c6f77000000000000000000000000000000000000000000000000000081525081526020016040518060400160405280600581526020017f677265656e00000000000000000000000000000000000000000000000000000081525081526020016040518060400160405280600481526020017f626c75650000000000000000000000000000000000000000000000000000000081525081526020016040518060400160405280600681526020017f696e6469676f000000000000000000000000000000000000000000000000000081525081526020016040518060400160405280600681526020017f76696f6c657400000000000000000000000000000000000000000000000000008152508152506008906007620001bc929190620008b3565b506040518060e001604052806040518060400160405280600681526020017f466c79696e67000000000000000000000000000000000000000000000000000081525081526020016040518060400160405280600681526020017f437279696e67000000000000000000000000000000000000000000000000000081525081526020016040518060400160405280600581526020017f416e67727900000000000000000000000000000000000000000000000000000081525081526020016040518060400160405280600681526020017f536c65657079000000000000000000000000000000000000000000000000000081525081526020016040518060400160405280600781526020017f52756e6e696e670000000000000000000000000000000000000000000000000081525081526020016040518060400160405280600881526020017f4c61756768696e6700000000000000000000000000000000000000000000000081525081526020016040518060400160405280600581526020017f4861707079000000000000000000000000000000000000000000000000000000815250815250600990600762000375929190620008b3565b506040518060e001604052806040518060400160405280600981526020017f417370617261677573000000000000000000000000000000000000000000000081525081526020016040518060400160405280600781526020017f41766f6361646f0000000000000000000000000000000000000000000000000081525081526020016040518060400160405280600481526020017f4b616c650000000000000000000000000000000000000000000000000000000081525081526020016040518060400160405280600681526020017f506f7461746f000000000000000000000000000000000000000000000000000081525081526020016040518060400160405280600781526020017f5370696e6163680000000000000000000000000000000000000000000000000081525081526020016040518060400160405280600881526020017f42726f63636f6c6900000000000000000000000000000000000000000000000081525081526020016040518060400160405280600681526020017f436172726f740000000000000000000000000000000000000000000000000000815250815250600a9060076200052e929190620008b3565b506040518060e001604052806040518060400160405280600681526020017f42616e616e61000000000000000000000000000000000000000000000000000081525081526020016040518060400160405280600481526020017f4b6977690000000000000000000000000000000000000000000000000000000081525081526020016040518060400160405280600581526020017f4170706c6500000000000000000000000000000000000000000000000000000081525081526020016040518060400160405280600581526020017f506561636800000000000000000000000000000000000000000000000000000081525081526020016040518060400160405280600681526020017f4f72616e6765000000000000000000000000000000000000000000000000000081525081526020016040518060400160405280600581526020017f477261706500000000000000000000000000000000000000000000000000000081525081526020016040518060400160405280600681526020017f4368657272790000000000000000000000000000000000000000000000000000815250815250600b906007620006e7929190620008b3565b50348015620006f557600080fd5b506040518060400160405280600981526020017f5371756172654e465400000000000000000000000000000000000000000000008152506040518060400160405280600681526020017f535155415245000000000000000000000000000000000000000000000000000081525081600090805190602001906200077a9291906200091a565b508060019080519060200190620007939291906200091a565b505050620007e16040518060400160405280601e81526020017f54686973206973206d79204e465420636f6e74726163742e20576f6168210000815250620007e760201b6200129c1760201c565b62000b65565b6200088781604051602401620007fe919062000a79565b6040516020818303038152906040527f41304fac000000000000000000000000000000000000000000000000000000007bffffffffffffffffffffffffffffffffffffffffffffffffffffffff19166020820180517bffffffffffffffffffffffffffffffffffffffffffffffffffffffff83818316178352505050506200088a60201b60201c565b50565b60008151905060006a636f6e736f6c652e6c6f679050602083016000808483855afa5050505050565b82805482825590600052602060002090810192821562000907579160200282015b8281111562000906578251829080519060200190620008f59291906200091a565b5091602001919060010190620008d4565b5b509050620009169190620009ab565b5090565b828054620009289062000aef565b90600052602060002090601f0160209004810192826200094c576000855562000998565b82601f106200096757805160ff191683800117855562000998565b8280016001018555821562000998579182015b82811115620009975782518255916020019190600101906200097a565b5b509050620009a79190620009d3565b5090565b5b80821115620009cf5760008181620009c59190620009f2565b50600101620009ac565b5090565b5b80821115620009ee576000816000905550600101620009d4565b5090565b50805462000a009062000aef565b6000825580601f1062000a14575062000a35565b601f01602090049060005260206000209081019062000a349190620009d3565b5b50565b600062000a458262000a9d565b62000a51818562000aa8565b935062000a6381856020860162000ab9565b62000a6e8162000b54565b840191505092915050565b6000602082019050818103600083015262000a95818462000a38565b905092915050565b600081519050919050565b600082825260208201905092915050565b60005b8381101562000ad957808201518184015260208101905062000abc565b8381111562000ae9576000848401525b50505050565b6000600282049050600182168062000b0857607f821691505b6020821081141562000b1f5762000b1e62000b25565b5b50919050565b7f4e487b7100000000000000000000000000000000000000000000000000000000600052602260045260246000fd5b6000601f19601f8301169050919050565b613bff8062000b756000396000f3fe608060405234801561001057600080fd5b50600436106100ea5760003560e01c806370a082311161008c578063b88d4fde11610066578063b88d4fde1461025b578063c87b56dd14610277578063de9d132f146102a7578063e985e9c5146102b1576100ea565b806370a08231146101f157806395d89b4114610221578063a22cb4651461023f576100ea565b8063095ea7b3116100c8578063095ea7b31461016d57806323b872dd1461018957806342842e0e146101a55780636352211e146101c1576100ea565b806301ffc9a7146100ef57806306fdde031461011f578063081812fc1461013d575b600080fd5b6101096004803603810190610104919061275a565b6102e1565b6040516101169190612d29565b60405180910390f35b6101276103c3565b6040516101349190612d44565b60405180910390f35b610157600480360381019061015291906127ac565b610455565b6040516101649190612c99565b60405180910390f35b6101876004803603810190610182919061271e565b6104da565b005b6101a3600480360381019061019e9190612618565b6105f2565b005b6101bf60048036038101906101ba9190612618565b610652565b005b6101db60048036038101906101d691906127ac565b610672565b6040516101e89190612c99565b60405180910390f35b61020b600480360381019061020691906125b3565b610724565b6040516102189190612fa4565b60405180910390f35b6102296107dc565b6040516102369190612d44565b60405180910390f35b610259600480360381019061025491906126e2565b61086e565b005b61027560048036038101906102709190612667565b610884565b005b610291600480360381019061028c91906127ac565b6108e6565b60405161029e9190612d44565b60405180910390f35b6102af610a38565b005b6102cb60048036038101906102c691906125dc565b611208565b6040516102d89190612d29565b60405180910390f35b60007f80ac58cd000000000000000000000000000000000000000000000000000000007bffffffffffffffffffffffffffffffffffffffffffffffffffffffff1916827bffffffffffffffffffffffffffffffffffffffffffffffffffffffff191614806103ac57507f5b5e139f000000000000000000000000000000000000000000000000000000007bffffffffffffffffffffffffffffffffffffffffffffffffffffffff1916827bffffffffffffffffffffffffffffffffffffffffffffffffffffffff1916145b806103bc57506103bb82611335565b5b9050919050565b6060600080546103d290613223565b80601f01602080910402602001604051908101604052809291908181526020018280546103fe90613223565b801561044b5780601f106104205761010080835404028352916020019161044b565b820191906000526020600020905b81548152906001019060200180831161042e57829003601f168201915b5050505050905090565b60006104608261139f565b61049f576040517f08c379a000000000000000000000000000000000000000000000000000000000815260040161049690612f24565b60405180910390fd5b6004600083815260200190815260200160002060009054906101000a900473ffffffffffffffffffffffffffffffffffffffff169050919050565b60006104e582610672565b90508073ffffffffffffffffffffffffffffffffffffffff168373ffffffffffffffffffffffffffffffffffffffff161415610556576040517f08c379a000000000000000000000000000000000000000000000000000000000815260040161054d90612f64565b60405180910390fd5b8073ffffffffffffffffffffffffffffffffffffffff1661057561140b565b73ffffffffffffffffffffffffffffffffffffffff1614806105a457506105a38161059e61140b565b611208565b5b6105e3576040517f08c379a00000000000000000000000000000000000000000000000000000000081526004016105da90612e64565b60405180910390fd5b6105ed8383611413565b505050565b6106036105fd61140b565b826114cc565b610642576040517f08c379a000000000000000000000000000000000000000000000000000000000815260040161063990612f84565b60405180910390fd5b61064d8383836115aa565b505050565b61066d83838360405180602001604052806000815250610884565b505050565b6000806002600084815260200190815260200160002060009054906101000a900473ffffffffffffffffffffffffffffffffffffffff169050600073ffffffffffffffffffffffffffffffffffffffff168173ffffffffffffffffffffffffffffffffffffffff16141561071b576040517f08c379a000000000000000000000000000000000000000000000000000000000815260040161071290612ea4565b60405180910390fd5b80915050919050565b60008073ffffffffffffffffffffffffffffffffffffffff168273ffffffffffffffffffffffffffffffffffffffff161415610795576040517f08c379a000000000000000000000000000000000000000000000000000000000815260040161078c90612e84565b60405180910390fd5b600360008373ffffffffffffffffffffffffffffffffffffffff1673ffffffffffffffffffffffffffffffffffffffff168152602001908152602001600020549050919050565b6060600180546107eb90613223565b80601f016020809104026020016040519081016040528092919081815260200182805461081790613223565b80156108645780601f1061083957610100808354040283529160200191610864565b820191906000526020600020905b81548152906001019060200180831161084757829003601f168201915b5050505050905090565b61088061087961140b565b8383611811565b5050565b61089561088f61140b565b836114cc565b6108d4576040517f08c379a00000000000000000000000000000000000000000000000000000000081526004016108cb90612f84565b60405180910390fd5b6108e08484848461197e565b50505050565b60606108f18261139f565b610930576040517f08c379a000000000000000000000000000000000000000000000000000000000815260040161092790612f04565b60405180910390fd5b600060066000848152602001908152602001600020805461095090613223565b80601f016020809104026020016040519081016040528092919081815260200182805461097c90613223565b80156109c95780601f1061099e576101008083540402835291602001916109c9565b820191906000526020600020905b8154815290600101906020018083116109ac57829003601f168201915b5050505050905060006109da6119da565b90506000815114156109f0578192505050610a33565b600082511115610a25578082604051602001610a0d929190612b78565b60405160208183030381529060405292505050610a33565b610a2e846119f1565b925050505b919050565b6000610a446007611a98565b90506000610b59826008805480602002602001604051908101604052809291908181526020016000905b82821015610b1a578382906000526020600020018054610a8d90613223565b80601f0160208091040260200160405190810160405280929190818152602001828054610ab990613223565b8015610b065780601f10610adb57610100808354040283529160200191610b06565b820191906000526020600020905b815481529060010190602001808311610ae957829003601f168201915b505050505081526020019060010190610a6e565b505050506040518060400160405280600b81526020017f46495253545f434f4c4f52000000000000000000000000000000000000000000815250611aa6565b90506000610c6e836008805480602002602001604051908101604052809291908181526020016000905b82821015610c2f578382906000526020600020018054610ba290613223565b80601f0160208091040260200160405190810160405280929190818152602001828054610bce90613223565b8015610c1b5780601f10610bf057610100808354040283529160200191610c1b565b820191906000526020600020905b815481529060010190602001808311610bfe57829003601f168201915b505050505081526020019060010190610b83565b505050506040518060400160405280600c81526020017f5345434f4e445f434f4c4f520000000000000000000000000000000000000000815250611aa6565b90506000610d83846009805480602002602001604051908101604052809291908181526020016000905b82821015610d44578382906000526020600020018054610cb790613223565b80601f0160208091040260200160405190810160405280929190818152602001828054610ce390613223565b8015610d305780601f10610d0557610100808354040283529160200191610d30565b820191906000526020600020905b815481529060010190602001808311610d1357829003601f168201915b505050505081526020019060010190610c98565b505050506040518060400160405280600a81526020017f46495253545f574f524400000000000000000000000000000000000000000000815250611aa6565b610e9485600a805480602002602001604051908101604052809291908181526020016000905b82821015610e55578382906000526020600020018054610dc890613223565b80601f0160208091040260200160405190810160405280929190818152602001828054610df490613223565b8015610e415780601f10610e1657610100808354040283529160200191610e41565b820191906000526020600020905b815481529060010190602001808311610e2457829003601f168201915b505050505081526020019060010190610da9565b505050506040518060400160405280600b81526020017f5345434f4e445f574f5244000000000000000000000000000000000000000000815250611aa6565b610fa586600b805480602002602001604051908101604052809291908181526020016000905b82821015610f66578382906000526020600020018054610ed990613223565b80601f0160208091040260200160405190810160405280929190818152602001828054610f0590613223565b8015610f525780601f10610f2757610100808354040283529160200191610f52565b820191906000526020600020905b815481529060010190602001808311610f3557829003601f168201915b505050505081526020019060010190610eba565b505050506040518060400160405280600a81526020017f54484952445f574f524400000000000000000000000000000000000000000000815250611aa6565b604051602001610fb793929190612b9c565b6040516020818303038152906040529050600060405180610100016040528060cf8152602001613afb60cf913990506000604051806060016040528060218152602001613a9a60219139905060006040518060e0016040528060b781526020016139e360b79139905060006040518060400160405280600d81526020017f3c2f746578743e3c2f7376673e000000000000000000000000000000000000008152509050600084888589868a876040516020016110799796959493929190612bcd565b604051602081830303815290604052905060008661109683611b38565b6040516020016110a7929190612c32565b604051602081830303815290604052905060006110c382611b38565b90506000816040516020016110d89190612c77565b60405160208183030381529060405290506110f28361129c565b6110fb8461129c565b6111396040518060400160405280601581526020017f0a2d2d2d2d2d2d2d2d2d2d2d2d2d2d2d2d2d2d2d2d000000000000000000000081525061129c565b6111428161129c565b6111806040518060400160405280601581526020017f2d2d2d2d2d2d2d2d2d2d2d2d2d2d2d2d2d2d2d2d0a000000000000000000000081525061129c565b61118a338d611cf6565b6111948c82611d14565b61119e6007611d88565b6111c16040518060600160405280602581526020016139be602591398d33611d9e565b7febb98688741ffa4c7589bf325de30cf7becb63de567842e1ccdb6cb949fdc82c338d6040516111f2929190612d00565b60405180910390a1505050505050505050505050565b6000600560008473ffffffffffffffffffffffffffffffffffffffff1673ffffffffffffffffffffffffffffffffffffffff16815260200190815260200160002060008373ffffffffffffffffffffffffffffffffffffffff1673ffffffffffffffffffffffffffffffffffffffff16815260200190815260200160002060009054906101000a900460ff16905092915050565b611332816040516024016112b09190612d44565b6040516020818303038152906040527f41304fac000000000000000000000000000000000000000000000000000000007bffffffffffffffffffffffffffffffffffffffffffffffffffffffff19166020820180517bffffffffffffffffffffffffffffffffffffffffffffffffffffffff8381831617835250505050611e3d565b50565b60007f01ffc9a7000000000000000000000000000000000000000000000000000000007bffffffffffffffffffffffffffffffffffffffffffffffffffffffff1916827bffffffffffffffffffffffffffffffffffffffffffffffffffffffff1916149050919050565b60008073ffffffffffffffffffffffffffffffffffffffff166002600084815260200190815260200160002060009054906101000a900473ffffffffffffffffffffffffffffffffffffffff1673ffffffffffffffffffffffffffffffffffffffff1614159050919050565b600033905090565b816004600083815260200190815260200160002060006101000a81548173ffffffffffffffffffffffffffffffffffffffff021916908373ffffffffffffffffffffffffffffffffffffffff160217905550808273ffffffffffffffffffffffffffffffffffffffff1661148683610672565b73ffffffffffffffffffffffffffffffffffffffff167f8c5be1e5ebec7d5bd14f71427d1e84f3dd0314c0f7b2291e5b200ac8c7c3b92560405160405180910390a45050565b60006114d78261139f565b611516576040517f08c379a000000000000000000000000000000000000000000000000000000000815260040161150d90612e44565b60405180910390fd5b600061152183610672565b90508073ffffffffffffffffffffffffffffffffffffffff168473ffffffffffffffffffffffffffffffffffffffff16148061156357506115628185611208565b5b806115a157508373ffffffffffffffffffffffffffffffffffffffff1661158984610455565b73ffffffffffffffffffffffffffffffffffffffff16145b91505092915050565b8273ffffffffffffffffffffffffffffffffffffffff166115ca82610672565b73ffffffffffffffffffffffffffffffffffffffff1614611620576040517f08c379a000000000000000000000000000000000000000000000000000000000815260040161161790612dc4565b60405180910390fd5b600073ffffffffffffffffffffffffffffffffffffffff168273ffffffffffffffffffffffffffffffffffffffff161415611690576040517f08c379a000000000000000000000000000000000000000000000000000000000815260040161168790612e04565b60405180910390fd5b61169b838383611e66565b6116a6600082611413565b6001600360008573ffffffffffffffffffffffffffffffffffffffff1673ffffffffffffffffffffffffffffffffffffffff16815260200190815260200160002060008282546116f69190613139565b925050819055506001600360008473ffffffffffffffffffffffffffffffffffffffff1673ffffffffffffffffffffffffffffffffffffffff168152602001908152602001600020600082825461174d9190613058565b92505081905550816002600083815260200190815260200160002060006101000a81548173ffffffffffffffffffffffffffffffffffffffff021916908373ffffffffffffffffffffffffffffffffffffffff160217905550808273ffffffffffffffffffffffffffffffffffffffff168473ffffffffffffffffffffffffffffffffffffffff167fddf252ad1be2c89b69c2b068fc378daa952ba7f163c4a11628f55a4df523b3ef60405160405180910390a461180c838383611e6b565b505050565b8173ffffffffffffffffffffffffffffffffffffffff168373ffffffffffffffffffffffffffffffffffffffff161415611880576040517f08c379a000000000000000000000000000000000000000000000000000000000815260040161187790612e24565b60405180910390fd5b80600560008573ffffffffffffffffffffffffffffffffffffffff1673ffffffffffffffffffffffffffffffffffffffff16815260200190815260200160002060008473ffffffffffffffffffffffffffffffffffffffff1673ffffffffffffffffffffffffffffffffffffffff16815260200190815260200160002060006101000a81548160ff0219169083151502179055508173ffffffffffffffffffffffffffffffffffffffff168373ffffffffffffffffffffffffffffffffffffffff167f17307eab39ab6107e8899845ad3d59bd9653f200f220920489ca2b5937696c31836040516119719190612d29565b60405180910390a3505050565b6119898484846115aa565b61199584848484611e70565b6119d4576040517f08c379a00000000000000000000000000000000000000000000000000000000081526004016119cb90612da4565b60405180910390fd5b50505050565b606060405180602001604052806000815250905090565b60606119fc8261139f565b611a3b576040517f08c379a0000000000000000000000000000000000000000000000000000000008152600401611a3290612f44565b60405180910390fd5b6000611a456119da565b90506000815111611a655760405180602001604052806000815250611a90565b80611a6f84612007565b604051602001611a80929190612b78565b6040516020818303038152906040525b915050919050565b600081600001549050919050565b60606000611adc83611ab787612007565b604051602001611ac8929190612b78565b6040516020818303038152906040526121b4565b9050835181611aeb91906132cf565b9050838181518110611b26577f4e487b7100000000000000000000000000000000000000000000000000000000600052603260045260246000fd5b60200260200101519150509392505050565b60606000825190506000811415611b615760405180602001604052806000815250915050611cf1565b60006003600283611b729190613058565b611b7c91906130ae565b6004611b8891906130df565b90506000602082611b999190613058565b67ffffffffffffffff811115611bd8577f4e487b7100000000000000000000000000000000000000000000000000000000600052604160045260246000fd5b6040519080825280601f01601f191660200182016040528015611c0a5781602001600182028036833780820191505090505b5090506000604051806060016040528060408152602001613abb604091399050600181016020830160005b86811015611cae5760038101905062ffffff818a015116603f8160121c168401518060081b905060ff603f83600c1c1686015116810190508060081b905060ff603f8360061c1686015116810190508060081b905060ff603f831686015116810190508060e01b90508084526004840193505050611c35565b506003860660018114611cc85760028114611cd857611ce3565b613d3d60f01b6002830352611ce3565b603d60f81b60018303525b508484525050819450505050505b919050565b611d108282604051806020016040528060008152506121e7565b5050565b611d1d8261139f565b611d5c576040517f08c379a0000000000000000000000000000000000000000000000000000000008152600401611d5390612ec4565b60405180910390fd5b80600660008481526020019081526020016000209080519060200190611d8392919061243f565b505050565b6001816000016000828254019250508190555050565b611e38838383604051602401611db693929190612d66565b6040516020818303038152906040527fe3849f79000000000000000000000000000000000000000000000000000000007bffffffffffffffffffffffffffffffffffffffffffffffffffffffff19166020820180517bffffffffffffffffffffffffffffffffffffffffffffffffffffffff8381831617835250505050611e3d565b505050565b60008151905060006a636f6e736f6c652e6c6f679050602083016000808483855afa5050505050565b505050565b505050565b6000611e918473ffffffffffffffffffffffffffffffffffffffff16612242565b15611ffa578373ffffffffffffffffffffffffffffffffffffffff1663150b7a02611eba61140b565b8786866040518563ffffffff1660e01b8152600401611edc9493929190612cb4565b602060405180830381600087803b158015611ef657600080fd5b505af1925050508015611f2757506040513d601f19601f82011682018060405250810190611f249190612783565b60015b611faa573d8060008114611f57576040519150601f19603f3d011682016040523d82523d6000602084013e611f5c565b606091505b50600081511415611fa2576040517f08c379a0000000000000000000000000000000000000000000000000000000008152600401611f9990612da4565b60405180910390fd5b805181602001fd5b63150b7a0260e01b7bffffffffffffffffffffffffffffffffffffffffffffffffffffffff1916817bffffffffffffffffffffffffffffffffffffffffffffffffffffffff191614915050611fff565b600190505b949350505050565b6060600082141561204f576040518060400160405280600181526020017f300000000000000000000000000000000000000000000000000000000000000081525090506121af565b600082905060005b6000821461208157808061206a90613286565b915050600a8261207a91906130ae565b9150612057565b60008167ffffffffffffffff8111156120c3577f4e487b7100000000000000000000000000000000000000000000000000000000600052604160045260246000fd5b6040519080825280601f01601f1916602001820160405280156120f55781602001600182028036833780820191505090505b5090505b600085146121a85760018261210e9190613139565b9150600a8561211d91906132cf565b60306121299190613058565b60f81b818381518110612165577f4e487b7100000000000000000000000000000000000000000000000000000000600052603260045260246000fd5b60200101907effffffffffffffffffffffffffffffffffffffffffffffffffffffffffffff1916908160001a905350600a856121a191906130ae565b94506120f9565b8093505050505b919050565b6000816040516020016121c79190612b61565b6040516020818303038152906040528051906020012060001c9050919050565b6121f18383612265565b6121fe6000848484611e70565b61223d576040517f08c379a000000000000000000000000000000000000000000000000000000000815260040161223490612da4565b60405180910390fd5b505050565b6000808273ffffffffffffffffffffffffffffffffffffffff163b119050919050565b600073ffffffffffffffffffffffffffffffffffffffff168273ffffffffffffffffffffffffffffffffffffffff1614156122d5576040517f08c379a00000000000000000000000000000000000000000000000000000000081526004016122cc90612ee4565b60405180910390fd5b6122de8161139f565b1561231e576040517f08c379a000000000000000000000000000000000000000000000000000000000815260040161231590612de4565b60405180910390fd5b61232a60008383611e66565b6001600360008473ffffffffffffffffffffffffffffffffffffffff1673ffffffffffffffffffffffffffffffffffffffff168152602001908152602001600020600082825461237a9190613058565b92505081905550816002600083815260200190815260200160002060006101000a81548173ffffffffffffffffffffffffffffffffffffffff021916908373ffffffffffffffffffffffffffffffffffffffff160217905550808273ffffffffffffffffffffffffffffffffffffffff16600073ffffffffffffffffffffffffffffffffffffffff167fddf252ad1be2c89b69c2b068fc378daa952ba7f163c4a11628f55a4df523b3ef60405160405180910390a461243b60008383611e6b565b5050565b82805461244b90613223565b90600052602060002090601f01602090048101928261246d57600085556124b4565b82601f1061248657805160ff19168380011785556124b4565b828001600101855582156124b4579182015b828111156124b3578251825591602001919060010190612498565b5b5090506124c191906124c5565b5090565b5b808211156124de5760008160009055506001016124c6565b5090565b60006124f56124f084612fe4565b612fbf565b90508281526020810184848401111561250d57600080fd5b6125188482856131e1565b509392505050565b60008135905061252f81613961565b92915050565b60008135905061254481613978565b92915050565b6000813590506125598161398f565b92915050565b60008151905061256e8161398f565b92915050565b600082601f83011261258557600080fd5b81356125958482602086016124e2565b91505092915050565b6000813590506125ad816139a6565b92915050565b6000602082840312156125c557600080fd5b60006125d384828501612520565b91505092915050565b600080604083850312156125ef57600080fd5b60006125fd85828601612520565b925050602061260e85828601612520565b9150509250929050565b60008060006060848603121561262d57600080fd5b600061263b86828701612520565b935050602061264c86828701612520565b925050604061265d8682870161259e565b9150509250925092565b6000806000806080858703121561267d57600080fd5b600061268b87828801612520565b945050602061269c87828801612520565b93505060406126ad8782880161259e565b925050606085013567ffffffffffffffff8111156126ca57600080fd5b6126d687828801612574565b91505092959194509250565b600080604083850312156126f557600080fd5b600061270385828601612520565b925050602061271485828601612535565b9150509250929050565b6000806040838503121561273157600080fd5b600061273f85828601612520565b92505060206127508582860161259e565b9150509250929050565b60006020828403121561276c57600080fd5b600061277a8482850161254a565b91505092915050565b60006020828403121561279557600080fd5b60006127a38482850161255f565b91505092915050565b6000602082840312156127be57600080fd5b60006127cc8482850161259e565b91505092915050565b6127de8161316d565b82525050565b6127ed8161317f565b82525050565b60006127fe82613015565b612808818561302b565b93506128188185602086016131f0565b612821816133bc565b840191505092915050565b600061283782613020565b612841818561303c565b93506128518185602086016131f0565b61285a816133bc565b840191505092915050565b600061287082613020565b61287a818561304d565b935061288a8185602086016131f0565b80840191505092915050565b60006128a360328361303c565b91506128ae826133cd565b604082019050919050565b60006128c660258361303c565b91506128d18261341c565b604082019050919050565b60006128e9601c8361303c565b91506128f48261346b565b602082019050919050565b600061290c60248361303c565b915061291782613494565b604082019050919050565b600061292f60198361303c565b915061293a826134e3565b602082019050919050565b600061295260638361304d565b915061295d8261350c565b606382019050919050565b6000612975602c8361303c565b9150612980826135a7565b604082019050919050565b600061299860388361303c565b91506129a3826135f6565b604082019050919050565b60006129bb602a8361303c565b91506129c682613645565b604082019050919050565b60006129de60298361303c565b91506129e982613694565b604082019050919050565b6000612a01602e8361303c565b9150612a0c826136e3565b604082019050919050565b6000612a2460028361304d565b9150612a2f82613732565b600282019050919050565b6000612a4760208361303c565b9150612a528261375b565b602082019050919050565b6000612a6a60318361303c565b9150612a7582613784565b604082019050919050565b6000612a8d602c8361303c565b9150612a98826137d3565b604082019050919050565b6000612ab0602f8361303c565b9150612abb82613822565b604082019050919050565b6000612ad3600a8361304d565b9150612ade82613871565b600a82019050919050565b6000612af660218361303c565b9150612b018261389a565b604082019050919050565b6000612b19601d8361304d565b9150612b24826138e9565b601d82019050919050565b6000612b3c60318361303c565b9150612b4782613912565b604082019050919050565b612b5b816131d7565b82525050565b6000612b6d8284612865565b915081905092915050565b6000612b848285612865565b9150612b908284612865565b91508190509392505050565b6000612ba88286612865565b9150612bb48285612865565b9150612bc08284612865565b9150819050949350505050565b6000612bd9828a612865565b9150612be58289612865565b9150612bf18288612865565b9150612bfd8287612865565b9150612c098286612865565b9150612c158285612865565b9150612c218284612865565b915081905098975050505050505050565b6000612c3d82612ac6565b9150612c498285612865565b9150612c5482612945565b9150612c608284612865565b9150612c6b82612a17565b91508190509392505050565b6000612c8282612b0c565b9150612c8e8284612865565b915081905092915050565b6000602082019050612cae60008301846127d5565b92915050565b6000608082019050612cc960008301876127d5565b612cd660208301866127d5565b612ce36040830185612b52565b8181036060830152612cf581846127f3565b905095945050505050565b6000604082019050612d1560008301856127d5565b612d226020830184612b52565b9392505050565b6000602082019050612d3e60008301846127e4565b92915050565b60006020820190508181036000830152612d5e818461282c565b905092915050565b60006060820190508181036000830152612d80818661282c565b9050612d8f6020830185612b52565b612d9c60408301846127d5565b949350505050565b60006020820190508181036000830152612dbd81612896565b9050919050565b60006020820190508181036000830152612ddd816128b9565b9050919050565b60006020820190508181036000830152612dfd816128dc565b9050919050565b60006020820190508181036000830152612e1d816128ff565b9050919050565b60006020820190508181036000830152612e3d81612922565b9050919050565b60006020820190508181036000830152612e5d81612968565b9050919050565b60006020820190508181036000830152612e7d8161298b565b9050919050565b60006020820190508181036000830152612e9d816129ae565b9050919050565b60006020820190508181036000830152612ebd816129d1565b9050919050565b60006020820190508181036000830152612edd816129f4565b9050919050565b60006020820190508181036000830152612efd81612a3a565b9050919050565b60006020820190508181036000830152612f1d81612a5d565b9050919050565b60006020820190508181036000830152612f3d81612a80565b9050919050565b60006020820190508181036000830152612f5d81612aa3565b9050919050565b60006020820190508181036000830152612f7d81612ae9565b9050919050565b60006020820190508181036000830152612f9d81612b2f565b9050919050565b6000602082019050612fb96000830184612b52565b92915050565b6000612fc9612fda565b9050612fd58282613255565b919050565b6000604051905090565b600067ffffffffffffffff821115612fff57612ffe61338d565b5b613008826133bc565b9050602081019050919050565b600081519050919050565b600081519050919050565b600082825260208201905092915050565b600082825260208201905092915050565b600081905092915050565b6000613063826131d7565b915061306e836131d7565b9250827fffffffffffffffffffffffffffffffffffffffffffffffffffffffffffffffff038211156130a3576130a2613300565b5b828201905092915050565b60006130b9826131d7565b91506130c4836131d7565b9250826130d4576130d361332f565b5b828204905092915050565b60006130ea826131d7565b91506130f5836131d7565b9250817fffffffffffffffffffffffffffffffffffffffffffffffffffffffffffffffff048311821515161561312e5761312d613300565b5b828202905092915050565b6000613144826131d7565b915061314f836131d7565b92508282101561316257613161613300565b5b828203905092915050565b6000613178826131b7565b9050919050565b60008115159050919050565b60007fffffffff0000000000000000000000000000000000000000000000000000000082169050919050565b600073ffffffffffffffffffffffffffffffffffffffff82169050919050565b6000819050919050565b82818337600083830152505050565b60005b8381101561320e5780820151818401526020810190506131f3565b8381111561321d576000848401525b50505050565b6000600282049050600182168061323b57607f821691505b6020821081141561324f5761324e61335e565b5b50919050565b61325e826133bc565b810181811067ffffffffffffffff8211171561327d5761327c61338d565b5b80604052505050565b6000613291826131d7565b91507fffffffffffffffffffffffffffffffffffffffffffffffffffffffffffffffff8214156132c4576132c3613300565b5b600182019050919050565b60006132da826131d7565b91506132e5836131d7565b9250826132f5576132f461332f565b5b828206905092915050565b7f4e487b7100000000000000000000000000000000000000000000000000000000600052601160045260246000fd5b7f4e487b7100000000000000000000000000000000000000000000000000000000600052601260045260246000fd5b7f4e487b7100000000000000000000000000000000000000000000000000000000600052602260045260246000fd5b7f4e487b7100000000000000000000000000000000000000000000000000000000600052604160045260246000fd5b6000601f19601f8301169050919050565b7f4552433732313a207472616e7366657220746f206e6f6e20455243373231526560008201527f63656976657220696d706c656d656e7465720000000000000000000000000000602082015250565b7f4552433732313a207472616e736665722066726f6d20696e636f72726563742060008201527f6f776e6572000000000000000000000000000000000000000000000000000000602082015250565b7f4552433732313a20746f6b656e20616c7265616479206d696e74656400000000600082015250565b7f4552433732313a207472616e7366657220746f20746865207a65726f2061646460008201527f7265737300000000000000000000000000000000000000000000000000000000602082015250565b7f4552433732313a20617070726f766520746f2063616c6c657200000000000000600082015250565b7f222c20226465736372697074696f6e223a20224120686967686c79206163636c60008201527f61696d656420636f6c6c656374696f6e206f6620737175617265732e222c202260208201527f696d616765223a2022646174613a696d6167652f7376672b786d6c3b6261736560408201527f36342c0000000000000000000000000000000000000000000000000000000000606082015250565b7f4552433732313a206f70657261746f7220717565727920666f72206e6f6e657860008201527f697374656e7420746f6b656e0000000000000000000000000000000000000000602082015250565b7f4552433732313a20617070726f76652063616c6c6572206973206e6f74206f7760008201527f6e6572206e6f7220617070726f76656420666f7220616c6c0000000000000000602082015250565b7f4552433732313a2062616c616e636520717565727920666f7220746865207a6560008201527f726f206164647265737300000000000000000000000000000000000000000000602082015250565b7f4552433732313a206f776e657220717565727920666f72206e6f6e657869737460008201527f656e7420746f6b656e0000000000000000000000000000000000000000000000602082015250565b7f45524337323155524953746f726167653a2055524920736574206f66206e6f6e60008201527f6578697374656e7420746f6b656e000000000000000000000000000000000000602082015250565b7f227d000000000000000000000000000000000000000000000000000000000000600082015250565b7f4552433732313a206d696e7420746f20746865207a65726f2061646472657373600082015250565b7f45524337323155524953746f726167653a2055524920717565727920666f722060008201527f6e6f6e6578697374656e7420746f6b656e000000000000000000000000000000602082015250565b7f4552433732313a20617070726f76656420717565727920666f72206e6f6e657860008201527f697374656e7420746f6b656e0000000000000000000000000000000000000000602082015250565b7f4552433732314d657461646174613a2055524920717565727920666f72206e6f60008201527f6e6578697374656e7420746f6b656e0000000000000000000000000000000000602082015250565b7f7b226e616d65223a202200000000000000000000000000000000000000000000600082015250565b7f4552433732313a20617070726f76616c20746f2063757272656e74206f776e6560008201527f7200000000000000000000000000000000000000000000000000000000000000602082015250565b7f646174613a6170706c69636174696f6e2f6a736f6e3b6261736536342c000000600082015250565b7f4552433732313a207472616e736665722063616c6c6572206973206e6f74206f60008201527f776e6572206e6f7220617070726f766564000000000000000000000000000000602082015250565b61396a8161316d565b811461397557600080fd5b50565b6139818161317f565b811461398c57600080fd5b50565b6139988161318b565b81146139a357600080fd5b50565b6139af816131d7565b81146139ba57600080fd5b5056fe416e204e465420772f20494420257320686173206265656e206d696e74656420746f20257322206f66667365743d2231303025222f3e3c2f6c696e6561724772616469656e743e3c2f646566733e3c726563742077696474683d223130302522206865696768743d2231303025222f3e3c7465787420783d223530252220793d223530252220646f6d696e616e742d626173656c696e653d226d6964646c652220746578742d616e63686f723d226d6964646c65222066696c6c3d2275726c2823612922207374796c653d22666f6e742d73697a653a32347078223e22206f66667365743d223025222f3e3c73746f702073746f702d636f6c6f723d224142434445464748494a4b4c4d4e4f505152535455565758595a6162636465666768696a6b6c6d6e6f707172737475767778797a303132333435363738392b2f3c73766720786d6c6e733d22687474703a2f2f7777772e77332e6f72672f323030302f73766722207072657365727665417370656374526174696f3d22784d696e594d696e206d656574222076696577426f783d223020302033353020333530223e3c646566733e3c6c696e6561724772616469656e742069643d2261222078313d2230222078323d2231303025222079313d2230222079323d223022206772616469656e74556e6974733d227573657253706163654f6e557365223e3c73746f702073746f702d636f6c6f723d22a2646970667358221220baec0b9ef4b92f6633e70b01095498d5b001c78d6e2b53967ab7fe3b5041172a64736f6c63430008010033",
  "linkReferences": {},
  "deployedLinkReferences": {}
}